
:020000040800F2
:200000003003002021A40000AB350000AB350000AB350000AB350000AB3500000000000068
:20002000000000000000000000000000DB350000DB35000000000000DB35000081350000DA
:20004000DB350000DB350000DB35000003360000DB350000DB3500002D3600005736000027
:2000600081360000AB360000D5360000DB350000DB350000DB350000DB350000DB3500008D
:20008000DB350000DB350000FD360000DB350000DB350000DB350000DB350000273700006F
:2000A000533700007F370000AB370000D7370000013800002B38000055380000813800002E
:2000C000AD380000D9380000053900002D390000553900007F390000A9390000D339000052
:2000E000FD390000293A0000533A00000000000000000000000000000000000000000000DA
:2001000000000000000000007B3A0000A33A0000CB3A0000F33A00001B3B0000433B000047
:20012000DB350000DB350000DB350000DB350000DB350000DB350000DB350000DB3500003F
:20014000DB350000DB350000DB3500006B3B000076010000FFFF1E2D2D2D204D656372699F
:2001600073702D5374656C6C6172697320436F7265202D2D2D008E0100004200043264758C
:200180007000386847F8046D043F38607047A00100006200053264726F70043740CF70471D
:2001A000BE010000440005327377617007CF043F386047F8046D043F3A600E007047D20174
:2001C0000000620004326E69700007CF043F38607047EC010000440005326F766572B86894
:2001E00047F8046D043F3860FE68704710020000440005327475636B07CF043F386047F823
:20020000046D043F3A60043F3960043F386070473202000046000432726F74003868B9685C
:200220003A69B86039613A6079687E60FE68F960704754020000460005322D726F743868A5
:20024000B9683A6938613960BA60F968FE607E687960704768020000200003323E7201CF1A
:2002600001B440B440CF70478002000020000332723E47F8046D40BC01BC043F386070478D
:200280009802000020000332724047F8046D019E47F8046D009E7047AA0200002000063265
:2002A0007264726F700002B07047C202000042000364322F3868F107761040080843386097
:2002C0007047D602000062000364322A38680018764138607047F002000042000464736835
:2002E00072003868F10776084008084338607047060300006200046473686C0038680018C2
:20030000764138607047180300004200046461627300002E07D47047360300004200076436
:200320006E656761746538680021C043F64301304E41386070474E030000640002642D00F5
:2003400007CF121AB1410E00043F3A60704764030000640002642B0007CF12184E41043FD9
:200360003A60704776030000610003733E6447F8046DF61770478A030000620003756D2AC8
:200380003868A0FB0606386070479E0300006200026D2A00386880FB060638607047DC03D6
:2003A000000044000375642A07CF564341437618010C130C59437618010C80B292B2514305
:2003C000434350430022C91852411204B6180A04090C80184E41043F386070476E0400003C
:2003E00044000475646D2A0010B5002447F8046D7E6847F8046D3E69FFF7C2FF310040CF78
:20040000300040CF47F8046D3E6847F8046DFE6803B4FFF7B5FF03BC330040CF320040CF8E
:2004200047F8046D3E6847F8046D3E690FB4FFF7A7FF0FBC9219634140CF8919624163419E
:2004400040CF47F8046D7E6847F8046DFE680FB4FFF796FF0FBC9219634140CF8919624125
:20046000634140CF1E003A607960B86010BD900400004300022A2F0000B540B440CFFFF773
:2004800089FF47F8046D40BC00F04CF8043700BDB20400004300052A2F6D6F6400B540B4BC
:2004A00040CFFFF777FF47F8046D40BC00F03AF800BDD4040000430003752A2F00B540B4A1
:2004C00040CFFFF75DFF47F8046D40BC00F01BF8043700BDF8040000430006752A2F6D6F25
:2004E000640000B540B440CFFFF74AFF47F8046D40BC00F008F800BD18050000430006756D
:200500006D2F6D6F640000B547F8046D002600F019F840CF043700BD360500004300056D7C
:200520002F6D6F6400B547F8046DF61700F032F840CF043700BD8805000044000675642FDA
:200540006D6F640030B4002300227968B86835003C6840264000494152415B41AB4202D832
:2005600004D3A24202D3121BAB410130013EF1D10E0038607B60BA6030BC704730B400235B
:200580007A68B9680020E2E7FE050000440005642F6D6F6400B5F01719D0FFF7C4FEFFF7FD
:2005A00005FEF0170CD0FFF7BEFEFFF7FFFDFFF7C9FFFFF7FBFDFFF7B6FEFFF7F7FD00BDB4
:2005C000FFF7F4FDFFF7BEFFFFF7ADFE00BDFFF7EDFDF0170ED0FFF7A6FEFFF7E7FDFFF7F4
:2005E000B1FFFFF7A0FEFFF7E1FDFFF79CFEFFF7DDFD00BDFFF7DAFDFFF7A4FF00BD140689
:200600000000440002642F0000B5FFF7C3FFFFF7DCFD00BD5C060000440002662A0000B51B
:20062000F0170DD0FFF77FFEFFF7C0FDF0170DD0FFF779FEFFF7D8FE40CF01CF386000BD5F
:20064000FFF7B4FDF017F5D0FFF76DFEFFF7CCFE40CF01CF3860FFF766FE00BDA8060000CA
:20066000440002662F0000B5F0170ED0FFF75BFEFFF79CFDF0170ED0FFF755FEFFF796FD70
:20068000FFF77CFFFFF7A1FD00BDFFF78FFDF017F4D0FFF748FEFFF789FDFFF76FFFFFF739
:2006A00042FEFFF792FD00BDBC06000020000232210006CF3160726040CF7047D0060000AD
:2006C000200002324000043F7068386036687047F006000044000364753C07CF8E4204D8AA
:2006E00001D1904201D8002670470026F64370471007000044000364753E07CFB14204D870
:2007000001D1824201D8002670470026F643704730070000440002643C0007CF8E4204DCD4
:2007200001D1904201DC002670470026F643704750070000440002643E0007CFB14204DC5D
:2007400001D1824201DC002670470026F64370476007000062000364303C0437F617704798
:200760007407000062000364303D01CF0643013EB64170478E070000440003643C3E07CF32
:2007800050404E400643013EB641F6437047A6070000440002643D0007CF50404E400643FB
:2007A000013EB6417047B807000020000373704047F8046D3E007047C8070000200003733D
:2007C0007021370040CF7047DA07000020000372704047F8046D6E467047EA070000200039
:2007E00003727021B54640CF7047FA07000061000364757047F8046D70470A0800006100AA
:200800000464726F700040CF7047200800006100043F64757000002E01D047F8046D7047DE
:2008200034080000620004737761700039683E600E007047420800006200036E6970043726
:200840007047560800006200046F7665720047F8046D7E6870476C080000620004747563EE
:200860006B0001CF083F7E603860704782080000630003726F7403CF083F78603E600E00E7
:2008800070479A0800006300042D726F740003CF083F7E60396006007047AC0800002000F5
:2008A000047069636B0057F826607047C40800000000056465707468BC49C91B47F8046D82
:2008C0008E087047E00800000000067264657074680047F8046D6E46B549891B8E08704703
:2008E000F00800002000023E720040B440CF704702090000200002723E0047F8046D40BCEB
:2009000070471409000020000272400047F8046D009E7047240900002000057264726F70B1
:2009200001B0704738090000200005727069636BB6006E44366870474E0900006E000361EA
:200940006E6401CF064070470640000616F0660900006E000362696301CFB0430600704718
:200960008643000636F07C0900006E00026F720001CF064370470643000656F092090000AC
:200980006E0003786F7201CF464070474640000696F0A00900006100036E6F74F643704720
:2009A000B0090000610003636C7AB6FA86F67047BE09000061000373687276087047CC096C
:2009C000000061000373686C76007047DC090000610003726F725FEA76067047EE09000030
:2009E000610003726F6CB61956F100067047080A00006C00067273686966740001CFF0405F
:200A00000600704736080026220A00006C00076172736869667401CF3041060070473610E1
:200A2000F6173C0A00006C00066C73686966740001CFB04006007047360000264C0A000038
:200A4000610002303D00013EB64170475E0A0000610003303C3E013EB641F64370476C0AC7
:200A60000000610002303C00F6177047820A0000600004747275650047F8046D0026F64324
:200A80007047960A000060000566616C736547F8046D00267047AA0A00004200023E3D008F
:200AA00001CFB042EADA00267047BE0A00004200023C3D0001CFB042E0DD00267047D00A18
:200AC00000004200013C01CFB042D7DB00267047E20A00004200013E01CFB042CEDC002647
:200AE0007047F60A0000620003753E3D01CF861BB641F64370470A0B0000620003753C3D2A
:200B000001CF361AB641F64370471C0B0000620002753C0001CF861BB64170472E0B00003A
:200B2000620002753E0001CF361AB6417047440B00006B00023C3E0001CF361A013EB64144
:200B4000F6437047560B00006B00013D01CF361A013EB64170476A0B00006200036D696E70
:200B600001CFB04200DC060070477E0B00006200036D617801CFB04200DB06007047940BED
:200B80000000620004756D61780001CFB04200D306007047B40B0000620004756D696E0004
:200BA00001CFB04200D80600704700003002002030030020F20B00000000046D6F76650081
:200BC00007B5310040CF320040CF00290FD0B2420DD006D3013E013A705C50540139FBD136
:200BE00005E030781070013601320139F9D140CF07BD140C000000000466696C6C003000AC
:200C000040CF310040CF002902D001397054FCD140CF7047200C0000200001403668704717
:200C2000380C00006D00012103CF30600E00704706607047016070475E0C00006D00022B81
:200C4000210003CF3268121832600E007047026892190260704702685218026070476C0CF3
:200C6000000020000268400036887047860C00006D000268210003CF30800E0070470680DE
:200C8000704701807047AC0C00006D0003682B2103CF3288121832800E0070470288921927
:200CA000028070470288521802807047BA0C000020000263400036787047D40C00006D0091
:200CC0000263210003CF30700E0070470670704701707047FA0C00006D0003632B2103CF0B
:200CE0003278121832700E00704702789219027070470278521802707047220D00006D00C2
:200D000004626973210003CF3268024332600E007047026832430260704702680A43026057
:200D200070474A0D00006D0004626963210003CF3268824332600E0070470268B24302609C
:200D4000704702688A4302607047720D00006D0004786F72210003CF3268424032600E0094
:200D60007047026872400260704702684A4002607047DC0D0000680004626974400001CFD6
:200D80003668064018BF4FF0FF3670474FF4D04200B5012B0AD147F8046D002600F086FE12
:200DA00047F8046D160001F0A5F911E002CF013B02F020FB47F8046D3626164301F09AF9EA
:200DC00047F8046D0E0047F8046D002600F06EFE47F8046DB74E00F09DFF00BD040E000013
:200DE0006D0005686269732103CF3288024332800E007047028832430280704702880A4363
:200E0000028070472C0E00006D0005686269632103CF3288824332800E0070470288B243EF
:200E20000280704702888A4302807047540E00006D000568786F722103CF32884240328073
:200E40000E007047028872400280704702884A4002807047740E0000680005686269744035
:200E600001CF3688064018BF4FF0FF3670474FF408428DE79C0E00006D00056362697321BD
:200E800003CF3278024332700E007047027832430270704702780A4302707047C40E000050
:200EA0006D0005636269632103CF3278824332700E0070470278B2430270704702788A4387
:200EC00002707047EC0E00006D000563786F722103CF3278424032700E007047027872400F
:200EE0000270704702784A40027070470C0F0000680005636269744001CF3678064018BF97
:200F00004FF0FF3670474FF4F04241E71C0F000061000563656C6C2B043670472C0F000081
:200F200061000563656C6C73B6007047C60F000000000768666C61736821300040CF3100E8
:200F400040CF4FF48043984223D34FF4803398421FD24FF6FF731940994219D010F0010214
:200F6000002A16D102889A4213D110F10060524A524B1360524B1360524A01231360018045
:200F8000514A136813F00103FBD14E4A80231360704700F092FB2A57726F6E672061646406
:200FA00072657373206F72206461746120666F722077726974696E6720666C6173682021BF
:200FC0000A0002F03EBA1610000000000E666C617368706167656572617365000FB530003A
:200FE00040CF4FF48043984214D3334A334B1360334B1360334A02231360344A1060314A3E
:2010000042231360304A136813F00103FBD12D4A802313600FBD9810000000000A657261ED
:201020007365666C617368004FF4804072B64FF480314FF6FF72038893421CD047F8046DF9
:20104000060047F8046D00F038FB10457261736520626C6F636B20617420200000F0A0FBCC
:2010600000F02BFB0C2066726F6D20466C6173680A00FFF7B3FF02308842DCD100F01DFB09
:201080001246696E69736865642E20526573657420210A0002F05FBAD010000000000E651A
:2010A00072617365666C61736866726F6D00300040CFBBE7820D000004200240230167451D
:2010C000AB89EFCD102002400C20024014200240E61000006900012B01CF3618704736181C
:2010E0000036000616F1FC1000006900012D01CF861B7047361A003E0006B6F10A1100008C
:20110000610002312D00013E704718110000610002312B0001367047261100006100023276
:201120002D00023E704734110000610002322B0002367047461100006100066E65676174CA
:2011400065007642704758110000610003616273F0173618464070477611000042000575E3
:201160002F6D6F6401CF3100B0FBF6F67143401A043F38607047941100004200042F6D6FD2
:20118000640001CF310090FBF6F67143401A043F38607047A81100004200036D6F6400B5E0
:2011A000FFF7EFFF40CF00BDB81100006200012F01CF90FBF6F67047C81100006A00012AB8
:2011C00001CF464370474643D6110000610002322A0076007047E4110000610002322F00EA
:2011E00076107047F81100006100046576656E0001203040361870471012000081000462F7
:201200006173650047F8046D804E70470A0000002612000000000662696E617279007B48D0
:201220000221016070473C120000000007646563696D616C75480A21016070474E120000EF
:2012400000000368657871481021016070476A120000810009686F6F6B2D656D697447F872
:20126000046D6B4E70475413000086120000810008686F6F6B2D6B65790047F8046D654E7B
:2012800070477A130000A412000081000A686F6F6B2D656D69743F0047F8046D5E4E7047EA
:2012A000A4130000C0120000810009686F6F6B2D6B65793F47F8046D584E7047D0130000C5
:2012C000DE12000081000A686F6F6B2D70617573650047F8046D524E704706350000F4124F
:2012E0000000000004656D6974000FB5484800F026F80FBD081300000000036B65790FB5E2
:20130000444800F01CF80FBD1A130000000005656D69743F4048006887462C130000000055
:20132000046B65793F003D48006887464213000000000570617573653948006887460068D1
:2013400087466813000000000B73657269616C2D656D697400B500F025F8002E40CFFAD015
:20136000304A167040CF00BD9013000000000A73657269616C2D6B65790000B500F028F839
:20138000002E40CFFAD047F8046D264A167800BDBE13000000000C73657269616C2D656D7F
:2013A00069743F0000B5FFF7C7FF47F8046D00261D4801688020014000D0F64300BD3C1405
:2013C000000000000B73657269616C2D6B65793F00B5FFF7B1FF47F8046D002612480168D9
:2013E0002020014000D0F64300BD104944F23D0008600F494FF4966008600E494620086054
:201400000D4942F20C00086070470000FC4F0020F84F0020F44F0020F04F0020EC4F002028
:20142000E84F002004380140003801401810024004080140083801400C380140601400002E
:201440000000076365787065637400B5386801B40130386000F00BF801BC067040CF00BDD4
:20146000D61400000000066163636570740000B502CF01390022FFF742FF300040CF7F280D
:2014800009D0202819D2092816D00A281FD00D281DD00828EFD1002AEDD000F00EF903080D
:2014A0002008002AE7D0885C013A80230340E2D040230340F5D0DEE72020B242DBD247F81C
:2014C000046D0600FFF711FF01328854D3E7160000F0A2F800BDE8140000400003746962EB
:2014E00047F8046D294E7047FE1400008100033E696E47F8046D264E70470000000024154F
:20150000000082000E63757272656E742D736F757263650047F8046D1E4E704700000000A7
:201520006800002040150000000009736574736F75726365174802CF0660416040CF7047EB
:201540005E150000000006736F757263650047F8046D104E043F70683860366870479815BE
:20156000000000000571756572790FB5084800210160FFF7B5FF47F8046D47F8046DC826A2
:20158000FFF775FFFFF7D6FF0FBD000068000020E44F0020DC4F0020E615000000000763BF
:2015A0006F6D706172650FB5310040CF01CF884202D040CF00260FBD02CF002810D0013824
:2015C0000A5C335C412A02D35B2A38BF2032412B02D35B2B38BF20339A42EED000260FBD6B
:2015E0000026F6430FBDFA15000000000263720000B500F062F8010A00BD0C1600000000F1
:2016000002626C0047F8046D2026704720160000000005737061636547F8046D202664E6C6
:20162000401600000000067370616365730000B5002E03DDFFF7F0FF013EFBD140CF00BD50
:20164000501600005000065B636861725D0005E068160000000004636861720000B501F0CD
:201660006AFB40CF367800BD781600005000012847F8046D292606E0921600005000015C4A
:2016800047F8046D002600B501F05FFB043740CF00BDD61600001000022E22009B4800B587
:2016A00047F8046D060000F05EFA47F8046D222601F04BFB00F058FD00BD0AB447F8046D8D
:2016C0007646013E33780121013319405B181EEB030E0ABC39E0FC160000100002632200A0
:2016E0008B48DCE747F8046D7646013E33780121013319405B181EEB030E704726170000CE
:201700001000027322008348C9E747F8046D764647F8046D013E36780121731C19405B1821
:201720001EEB030E70473E170000000005636F756E74013647F8046D013E3678704766174D
:201740000000000005637479706501B53078002807D0013647F8046D3678FFF7C6FD01387B
:20176000F7D140CF01BD941700000000047479706500310040CF300040CF00B5002908D02E
:20178000002247F8046D865CFFF7AFFD01329142F7D100BDCE1700000000046865782E000C
:2017A00007B5310040CF20200F22043847F8046D0E00C6401640092E01D9373600E03036A2
:2017C000FFF793FD0028F0D1FFF726FF07BDDE170000000003682E731FB54F4C0EE0EE1758
:2017E0000000000003752E731FB54C4C06E06C1800000000022E73001FB5494C4949C91B78
:201800008908494A106803B40A201060FFF755FF08537461636B3A205B0047F8046D0E0020
:2018200001F06BFCFFF749FF025D200003BC3E4A106000290AD03D4A106806B447F8046D70
:201840000600A04706BC043A0139F5D1FFF735FF0620544F533A200047F8046D3600A0472E
:20186000FFF72BFF04202A3E0A001FBD30190000000005776F72647300B5FFF71EFF010A86
:2018800000F0CFFEFFF719FF09416464726573733A2047F8046DFFF783FFFFF70EFF064CD7
:2018A000696E6B3A200047F8046D3668FFF778FFFFF703FF07466C6167733A2047F8046DDB
:2018C000B688FFF76DFFFFF7F8FE06436F64653A2000B01D00F0E1FE47F8046D0600FFF759
:2018E0005FFFFFF7EAFE064E616D653A200047F8046D0636FFF729FFFFF7DFFE010A00F0F3
:20190000A9FE300040CFBDD040CF00BDBA160000E41600000A170000A1170000EB300000CA
:20192000FB30000030020020FC4F00202C020020941A000000000D3132626974656E636F6F
:2019400064696E670FB5FF2E04D847F8046D5FF0FF360FBD16F0FF10B0420ED14FF6FF717D
:201960000840310C814208D116F0FF0656F4805647F8046D5FF0FF360FBD16F0FF20B04204
:201980000FD14FF6FF710840310C814209D1360A16F0FF0656F4005647F8046D5FF0FF3671
:2019A0000FBDFF2231001140300A1040884210D1300C104088420CD1300E1040884208D11F
:2019C00016F0FF0656F4405647F8046D5FF0FF360FBD300000210131001850F100007FF0D1
:2019E0007F020240802A05D01F29F4D347F8046D00260FBD0829F9D3060036F0800611F044
:201A00000100C001064311F00E00C002064311F010008005064347F8046D5FF0FF360FBDC2
:201A200047F8046DDFF848665FF4704110EA0102120116435FF4006110EA0102D203164325
:201A40005FF4E06110EA010212011643FF2110EA010216431E4377E347F8046DDFF8146657
:201A60005FF0704110EA0102120B16435FF0006110EA0102520816435FF0E06110EA010206
:201A8000120B16435FF47F0110EA0102120C16431E4359E3FA1A00000000107265676973AE
:201AA0007465726C69746572616C2C000FB5330040CF1B02FF2E05D856F400561E4300F0A4
:201AC00019FB0FBDFFF73EFF002E40CF06D0DFF8A80506431E4300F037FB0FBDF643FFF795
:201AE00031FF002E40CF06D0DFF8900506431E4300F02AFB0FBDF6430BE05A1B0000000013
:201B0000096D6F76776D6F76742C0FB5330040CF1B02300040CFFFF783FF4FF6FF7110EA78
:201B2000014001D0FFF798FF0FBD0FB50136300040CF0023FFF774FFFFF78EFF06E00FB547
:201B4000013647F8046D0026FFF7B0FF47F8046D44F2807600F0CEFA0FBDC01B0000000098
:201B60000563616C6C2C0FB5330000F034FE300040CF1B1A043BDFF808151940002906D080
:201B8000DFF80025914202D0BDE80F40D7E740CF5B08DFF8F40440F2FF7119400843DB0A86
:201BA00040F2FF311940090408439B0A13F001018906084347F8046D060000F0C5FA0FBD5D
:201BC000F61B00000000086C69746572616C2C0008B547F8046D4FF6470600F08BFA47F820
:201BE000046D46F6045600F085FA47F8046D0626FFF75CFF08BD1A1C000000000663726507
:201C00006174650000B500F033F841F63740804747F8046DBEF1010600BD621C0000200084
:201C200005646F65733E41F63740804747F8046DBEF10106704747F8046DBEF101064FF07F
:201C400000521368DFF8441409680220084000D0023102311160FFF768FF136000F0B7F996
:201C600000BDA41C00000000073C6275696C647300B500F061FB00F0AEFD0220064040CF0E
:201C800004D047F8046D362600F034FA47F8046D4BF2005600F02EFA47F8046D0A2600F01B
:201CA00096FA00BDB01C00005000035B275D03E0C81C00000000012700B501F03CF800F020
:201CC0002CFD300040CF00BD061D0000300008706F7374706F6E650000B5FFF7EDFF102144
:201CE00001400DD12021014005D0FFF771FF47F8046DE74E04E0FFF76BFF47F8046DE54EFC
:201D0000FFF731FF00BD5C1D0000000007696E6C696E652C00B54BF200514BF6005244F2A9
:201D200070733088884208D0904208D0984206D047F8046D060000F0DDF90236F1E740CF71
:201D400000BD0EB44BF6005244F2707301880230914201D09942F9D10EBC7047721D000044
:201D60000000047265742C0047F8046D4BF60056C0E1801D00003000046578697400F3E79B
:201D8000981D00003000077265637572736547F8046DBE4E3668E6E6B01D00008100057372
:201DA0007461746547F8046DBB4E704700000000C21D00000000015DB7480021C94301603B
:201DC0007047D21D00001000015BB348002101607047FA1D00000000013A00B5AF48076058
:201DE00000F0AAFA47F8046D4BF2005600F082F9A9480021C943016000BD421E00003000D5
:201E0000013B00B5A5480168B9420ED0FFF755FC1520537461636B206E6F742062616C610F
:201E20006E6365642E0A01F00CBB47F8046D4BF6005600F05FF900F0CAF897480021016076
:201E400000BD561E000000000765786563757465300040CF87466E1E0000100009696D6D63
:201E600065646961746547F8046D1026E2E0841E0000500006696E6C696E650047F8046D27
:201E80002026D7E09E1E000010000B636F6D70696C656F6E6C7947F8046D3026CAE0B81E3D
:201EA000000050000A302D666F6C6461626C650047F8046D4026BDE0D21E000050000A3104
:201EC0002D666F6C6461626C650047F8046D4126B0E0EC1E000050000A322D666F6C64612C
:201EE000626C650047F8046D4226A3E0061F000050000A332D666F6C6461626C650047F8BD
:201F0000046D432696E0201F000050000A342D666F6C6461626C650047F8046D442689E0BB
:201F20003A1F000050000A352D666F6C6461626C650047F8046D45267CE0541F0000500019
:201F40000A362D666F6C6461626C650047F8046D46266FE06E1F000050000A372D666F6CE4
:201F60006461626C650047F8046D472662E09E1F0000000008636F6E7374616E740000B526
:201F800000F0DAF9FFF724FE47F8046D44F2707600F0B0F8FFF78CFF00F019F800BDC01FE4
:201FA000000000000932636F6E7374616E7400B500F0C2F939683E600E46FFF709FEE1E7C4
:201FC00024200000000006736D756467650000B54FF0005001684FF0005291421CD20239F8
:201FE0000A884FF6FF739A4204D147F8046D002600F080F800F06CF82948006847F8046DCC
:2020000006002849096804314FF000521368116000F070F8136000BD00F05AF847F8046DAC
:20202000002608E0A8200000000008736574666C6167730000B54FF0005001684FF000522B
:20204000914205D2164801683143016040CF00BD320040CF13480068043001884FF6FF73F6
:20206000994201D1110000E01143018000BD0000000040F20000C0F200005FF000007FF08E
:202080000100C0FF0000C0FF00F800F014000020141D0000661B0000D84F0020100000207C
:2020A0002000002004000020C4200000410007616C69676E6564012030403618022030404B
:2020C00036187047EA200000000005616C69676E00B54FF0005001680220014004D047F8BE
:2020E000046D002600F006F800BD24210000000002682C000FB5B6B24FF0005001684FF060
:202100000052914205D247F8046D0E00FEF715FF02E0320040CF0A8047F8046D022600F087
:2021200056F80FBD3E2100000000012C00B547F8046DFFF7DFFF360CFFF7DCFF00BD5A2175
:2021400000000000033E3C2C00B547F8046D360CFFF7D0FFFFF7CEFF00BDC2210000000007
:2021600007737472696E672C07B5FF21314040CF300040CF002905D147F8046D0026FFF72F
:20218000B9FF07BD47F8046D067836020E43FFF7B1FF0130013902290AD347F8046D467885
:2021A000360202781643FFF7A5FF02300239F2E7002900D107BD47F8046D0678FFF79AFFB9
:2021C00007BD22220000000005616C6C6F744FF0005001684FF00052914210D2320040CF57
:2021E00089184FF48032914219D3FFF766FA0B466C6173682066756C6C0A01F022B9320060
:2022000040CF8918424A1268914208D3FFF755FA0952616D2066756C6C0A01F012B90160F2
:20222000704748220000000009666F7267657472616D00B500F028F84FF00050354901607A
:2022400035483649016000BD7422000000000D636F6D70696C65746F72616D3F47F8046DC6
:2022600000264FF0005000684FF0005188424DD3F64370479822000000000C636F6D7069F9
:202280006C65746F72616D004FF0005000684FF00051884213D370472823000000000E63A0
:2022A0006F6D70696C65746F666C617368004FF0005000684FF00051884200D2704716486F
:2022C000174902680B680A6003604FF00050154902680B680A6003600D480068834215D3F3
:2022E00000B5FFF7EAF923205661726961626C657320636F6C6C6964652077697468206418
:20230000696374696F6E6172790A00BD704700002400002030030020040000205001000061
:202320001C000020180000201E24000000000828637265617465290000B500F0FCFC002E4F
:202340000ED1FFF7BAF91520437265617465206E65656473206E616D6520210A01F071B817
:20236000386847F8046D043F386000F0A5F940CF002E40CF11D0386847F8046D043F38604C
:20238000FFF79BF9095265646566696E6520FFF7F0F9FFF792F9022E2000FFF799FE00F03B
:2023A0001AFA4FF0005000684FF0005188421ED28F480021016047F8046D0626FFF707FF97
:2023C000FEF765FAFFF7D0FE8A4801680A684FF0FF339A4208D14FF000521368116047F856
:2023E000046DFFF7A3FE1360066040CF11E0814847F8046D0668FFF799FE47F8046D4FF693
:20240000FF76FFF777FE7B48310040CF0160FFF7ABFE4FF0005001687748016000BD3624AA
:2024200000000000087661726961626C650047F8046D012613E04E24000000000932766100
:20244000726961626C6547F8046D022607E02C2500000000096E7661726961626C6500B58B
:20246000FFF76AFF4FF0005001684FF00052914234D20F200640B20060480168891A604A16
:2024800091420BD2FFF719F90F4E6F7420656E6F7567682052414D0A00F0D3BF016047F872
:2024A000046D0E00FFF794FB47F8046D44F27076FFF720FE300040CF0200002805D00E608C
:2024C0000431FFF733FE0138F9D147F8046D80261643FFF7AFFDFFF77AFD00BD00F07BF9BE
:2024E0000220064040CF04D147F8046D3626FFF701FE47F8046D434EFFF726FE47F8046D84
:20250000414EFFF721FE47F8046D44F27076FFF7F1FD300040CF002803D0FFF707FE0138F9
:20252000FBD1FFF7C5FCFFF752FD00BD0C2600000000076275666665723A00B5FFF7FCFE84
:202540000120304036180220304036184FF0005001684FF00052914228D228480168891BE9
:20256000274A91420BD2FFF7A8F80F4E6F7420656E6F7567682052414D0A00F062BF016042
:2025800047F8046D0E00FFF723FB47F8046D44F27076FFF7AFFDFFF7C9FD47F8046D40F25D
:2025A0004016FFF747FDFFF712FD00BD00F013F90220064040CF04D147F8046D3626FFF77F
:2025C00099FD47F8046D0F4EFFF7BEFD47F8046D0D4EFFF7B9FD47F8046D44F27076FFF72E
:2025E00089FDFFF7F4FDFFF763FCFFF7F0FC00BD200000200400002014000020240000209E
:20260000300300203E60043F02367E463E26000000000F64696374696F6E61727973746199
:2026200072744FF0005000684FF0005147F8046D884201D2E94E7047E94E366870477A26C6
:20264000000000000E64696374696F6E6172796E6578740003B531684FF0FF30814207D01E
:202660008879FF2804D00E0047F8046D002603BD47F8046D0026F64303BDAC260000000019
:202680000A736B6970737472696E67003178013101220A4089187618704706B4017801314F
:2026A00001220A408918401806BC70473027000000000466696E64003FB5002200233500D1
:2026C00040CF340040CFFFF7ACFF4FF6FF70B188884218D047F8046D0636FFF72AF847F825
:2026E000046D260047F8046D2E00FEF75CFF002E40CF08D0B01DFFF7D0FF02000B004FF022
:202700000050824204D2FFF7A5FF300040CFDCD0160047F8046D1E003FBD00B531003868E4
:20272000FFF7CAFF3A68002A01D100F05BFD00BD90270000000006636A756D702C003200FD
:2027400040CF310040CF8B1B043B6FF0FE01194000290ED06FF0FF0081420AD0FEF7ADFFEB
:202760000D4A756D7020746F6F206661720A00F068BE5B10FF210B40134330001E0000B596
:202780004FF0005213681060FFF7B4FC136000BDCA2700000000056A756D702C310040CFC9
:2027A000300040CF0B1A043B8E491940002902D08D4A9142D2D15B1040F2FF72134053F456
:2027C000604347F8046D1E00D9E7E2270000000004686572650047F8046D4FF00056366834
:2027E0007047DE28000000000D666C6173687661722D6865726547F8046D7C4E3668704718
:2028000000B547F8046D42F60066FFF773FC47F8046D4CF64076FFF76DFC00BDDBE700B515
:2028200000F03AF839683E600E4647F8046D4DF20016FFF784FF00BD00B500F02DF839683D
:202840003E600E4647F8046D4DF20076FFF777FF00BD00B5FFF7D4FF00F01EF839683E6035
:202860000E4647F8046D4DF20006FFF768FF00BD00B500F011F839683E600E46FFF78EFF31
:2028800000BD00B5FFF7BCFFFFF7A5FF47F8046D0226FFF79CFC00BD00B5FFF79CFF47F8D3
:2028A000046D0226FFF793FC00BD00B5FFF793FFFFF774FF00BD00B5FFF78DFF47F8046DF3
:2028C0004DF20006FFF73BFF00BD00B5FFF783FF47F8046D4DF20016FFF731FF00BD1A296E
:2028E00000003000047468656E00052E01D140CFDBE7022E01D140CFDDE7FEF7DEFE17530F
:2029000074727563747572657320646F6E2774206D617463680A00F094BD362900003000C3
:2029200004656C73650000B500F017F8FDF73EFCFFF7DBFF00BD4E29000030000269660003
:2029400000B5FFF79EFF47F8046D022600BD68290000300005616865616400B5FFF79CFF9B
:2029600047F8046D052600BD822900003000067265706561740000B500F01FF8FFF7B5FFF7
:2029800000BD9A2900003000057768696C6500B5FFF7D6FFFDF70AFC00BDAE29000030002B
:2029A00005756E74696C012EA7D140CF51E7C2290000300005616761696E012E9DD140CF2C
:2029C00056E7F0290000300005626567696E00B5FFF724FF47F8046D012600BD50010000B4
:2029E0000400002001F8FFFF00F8FFFF24000020002A00002000016B47F8046D029E7047C5
:202A0000102A00002000016A47F8046D009E7047202A00002000016947F8046D260070478B
:202A20005E2A00003000056C6561766500B5D94801683B00043F1A68043B1A6008338B42CC
:202A4000F9D103B4FFF728FF03BC330040CF04390B60016004390A6801320A6000BD702A2B
:202A60000000200006756E6C6F6F700030BC7047A82A00003000052B6C6F6F70032E00D003
:202A80003BE740CF00B547F8046DC34EFFF742F9FFF7D2FE1AE014F10044641BA41940CF0A
:202AA0002C44A4F100447047EA2A00003000046C6F6F7000032E00D01FE740CF00B547F80A
:202AC000046DB64EFFF726F9FFF7A9FE00F019F9B048310040CF016047F8046DB04EFFF790
:202AE00019F900BD0134AC427047322B0000780002646F0000B547F8046DAA4EFFF70AF92D
:202B0000A448016847F8046D0E0047F8046D00260760FFF783FE47F8046D032600BD00B5A3
:202B200000F02FF8ECE730B4340040CF350040CF7047CC2B00007800033F646F00B547F811
:202B4000046D984EFFF7E6F847F8046D44F2AC26FFF7D0FA8F48016847F8046D0E00FFF7DE
:202B60009BFE013647F8046D01268A480760FFF755FE47F8046D032600BD00B500F001F8F8
:202B8000E2E700B547F8046D4BF23046FFF7B2FA47F8046D0426FEF789FF013B08D047F808
:202BA000046D0526FEF782FF013B00F023FC00BD47F8046D3526FFF79DFA47F8046D4CF671
:202BC0004076FFF797FA00F015FC00BDE62B0000300004636173650047F8046D002647F804
:202BE000046D08267047FC2B00003000033F6F666D4809E0013EB64140CF7047A22C0000A9
:202C00007800026F66006948082E00D075E640CF00B547F8046D0600FFF77CF8FFF73CFE3F
:202C200039683E600E46013647F8046D092647F8046D4CF64076FFF75DFA00BD00B5300054
:202C400040CF013B01B400F0D5FB01BC082E00D053E640CF47F8046D0600FF213140B1426F
:202C600005D14FF438510E43FFF744FAD6E7FEF769FE002E40CF04D04D480643FFF764FAD1
:202C8000CCE747F8046D0026FEF710FF47F8046D44F2B026FFF72EFAC0E7300040CFB042F5
:202CA0007047D82C0000300005656E646F66092E00D022E640CF00B540B440CFFFF7ECFD63
:202CC00039683E600E46FFF700FE47F8046D40BC47F8046D082600BD2A2D00003000076533
:202CE0006E6463617365082E00D006E640CF00B547F8046D4CF64076FFF7FCF900F001F834
:202D000000BD00B5300040CF00280DD003B401213140002903D0013EFFF7CDFD01E0FFF7E1
:202D2000C4FD03BC0138EFE700BD3E2D0000000005746F6B656E47F8046D202605E0B82DF6
:202D40000000000005706172736510B5FEF7FFFB310040CF300040CF164A12688418202E5C
:202D600007D191420FD0835CB34202D101328418F7E7914207D0835C0132B342F9D186185C
:202D8000361B013E01E08618361B043F3C600948026010BD0C000020962A0000E42A00007A
:202DA0006C2A0000262B0000F42B00009A2C0000000FB6F1E44F0020F62D000000000564B2
:202DC00069676974CF4B1B68303E0BD30A2E0BD3073E0A2E06D3242E06D3203E0A2E01D35C
:202DE000242E01D3002670479E42FBD247F8046D0026F6437047002F00000000066E756DD8
:202E0000626572003FB5310040CF701E0126012204B4BC4B1B680024002500293CD001307C
:202E2000013902782D2A04D101B00022D24304B4F3E7232A01D10A23EFE7242A01D11023C3
:202E4000EBE7252A01D10223E7E72E2A01D10226E3E72C2A36D047F8046D1600FFF7B4FFA5
:202E6000002E40CF2BD047F8046D260047F8046D2E0047F8046D1E0047F8046D00260FB4FF
:202E8000FDF792FA0FBC350040CF340040CF0022A419554140CFC0E704BC002A04D5002250
:202EA000E443ED430134554133002600012B02D047F8046D2E0047F8046D1E003FBD01B040
:202EC00000263FBD2500002402260029E4D0425C01392E2AF9D047F8046D1600FFF774FF5A
:202EE000002E40CFEBD0043F3C6047F8046D1E000FB4FDF708FB0FBC340040CF40CFE4E78B
:202F0000222F00000000062E6469676974000A2E01D230367047242E01D237367047232661
:202F20007047582F0000000004686F6C6400330040CF754801783F290DD2013101704018EE
:202F4000012907D00138027801300270013801390129F7D103707047782F00000000056877
:202F60006F6C643C330040CF674801783F2902D20131017043547047902F00000000047309
:202F800069676E00002E01D440CF70472D26CEE7A42F0000000002233E005B48067801309A
:202FA00038607047BC2F000000000366235310B5202400F008F8013CFBD110BDDE2F00001C
:202FC00000000266230000B547F8046D4D4E3668FDF7D6F9FFF79BFFFFF7C4FF00BDFA2FD6
:202FE000000000000223530000B500F00AF8002EFBD138680028F8D100BD26300000000014
:20300000012300B547F8046D3E4E366847F8046D0026FDF797FAFDF7C9F840CFFFF777FF72
:20302000FFF785FF00BD383000000000023C230035480021017070474A30000000000266E8
:203040002E0047F8046D202604E098300000000003662E6E00B510B4340040CFFDF701FCEE
:20306000FDF757F947F8046D0026FFF7E1FFFFF7BBFF40CF2C26FFF775FF002C03D0FFF7F0
:20308000A2FF013CFBD110BC40CFFFF77BFF47F8046D47F8046D1CE0AE3000000000037589
:2030A000642E00B5FFF7C4FFFFF79EFF11E0E0300000000002642E0000B5FDF7D2FBFDF77E
:2030C00028F9FFF7B5FFFFF78FFFFDF7D4FBFFF759FFFFF762FFFEF74CFBFEF79DFA00BDB4
:2030E000F2300000000002752E0047F8046D0026D7E70C3100000000012E47F8046DF6174C
:20310000DAE70000FC4F002028000020543100000000086576616C756174650000B5FEF7AD
:2031200016FA01CF01B440B440CFD548016802B400210160FEF7FEF900F014F8D04802BC7B
:20314000016047F8046D40BC01BC043F3860FEF7F1F900BD1A340000000009696E746572B5
:203160007072657430B5C74887420BD9FEF7A5FA10537461636B20756E646572666C6F7763
:203180000A005EE1C04887420AD2FEF796FA0F537461636B206F766572666C6F770A50E1E0
:2031A000BA4C2568002D01D13D002560FFF7C3FD002E02D1043740CF30BD386847F8046D7D
:2031C000043F3860FFF778FA310040CF320040CF002A13D138683100FFF714FE320040CF03
:2031E000002AC0D1FEF7C9FAFEF767FA0C206E6F7420666F756E642E0A0022E1A44B1B68A0
:20320000002B1DD10025256030230B40302B0ED1FEF7AFFAFEF751FA1220697320636F6DC8
:2032200070696C652D6F6E6C792E0A0009E1043740CF47F8046D1600FEF70AFEFFF793FF3E
:20324000043740CF802008400ED1EB1B9B08402008400FD00820084002D0002B00D01DE0F3
:203260000F200840834205D347F8046D1600FEF7EFFD78E700F0BEF847F8046D1600102296
:203280000A4002D0FEF7E4FD6DE720220A4002D0FEF740FD67E7FEF766FC64E70720014000
:2032A0001000FEF74EFD01291FD1012BDCD1FF213140B14204D140880643FEF71BFF52E719
:2032C000FEF740FB002E40CF04D040680643FEF73BFF48E747F8046D0026FEF7E7FB47F872
:2032E000046D0688FEF706FF3DE7022902D1012BBAD1EFE7032927D1012BB5D1FF213140BF
:20330000B1420BD14FF478510E43FEF7F3FE043247F8046D1600FEF7FDFC24E7FEF712FBA4
:20332000002E40CF04D05B490E43FEF70DFFEEE747F8046D0026FEF7B9FB023247F8046D4E
:203340001600FEF7E7FC0EE7042918D1012B8BD1330040CF002B00D105E71F221A409A424B
:2033600005D047F8046D4688FEF7C4FEFBE647F8046D06889B011E43FEF7BCFEF3E6052971
:2033800024D1012B10D147F8046D0026FEF78EFB47F8046D0600FEF7BDFC47F8046D4CF681
:2033A0004076FEF7A7FEDEE647F8046D0026FEF77DFB47F8046D0126FEF778FBFEF7C1FCC5
:2033C00047F8046D0600FEF7A5FCCCE606290ED1012B7FF449AFFEF7B5FA002E40CF3FF436
:2033E00079AFD0F802000643FEF7AEFEBBE601308047B8E600B5002B0CD0013B47F8046D12
:203400001E0057F82660FEF7E3FB002BF5D1043D2F0040CF0025256000BD36340000810024
:2034200009686F6F6B2D7175697447F8046D1A4E70476A340000AC34000000000471756942
:203440007400DFF858D00F4F15480A2101601048002101600D4801600948016011480160B6
:20346000114941600C4800688746FEF77EF8FFF779FEFEF722F905206F6B2E0AF5E70000CD
:20348000E44F0020300200203001002008000020D84F00200006B6F1D44F00203003002084
:2034A000FC4F0020DC4F002068000020C634000000000565696E743F47F8046DEFF31086B8
:2034C000013EB6417047D634000020000465696E740062B67047E634000020000464696ED9
:2034E000740072B67047FC340000200004697073720047F8046DEFF3058670470835000056
:203500000000036E6F7070474A350000000009756E68616E646C656400B5FEF7CEF8145590
:203520006E68616E646C656420496E74657272757074200047F8046DEFF30586FEF730F905
:20354000FEF7BBF802210A0000BD603500000000057265736574DFF85407DFF85417016047
:203560008C35000081000B6972712D7379737469636B47F8046DDFF83C677047183500004D
:2035800044F6D070C2F2000000688746B63500008100096972712D6661756C7447F8046D0E
:2035A000DFF8146770471835000044F6CC70C2F2000000688746E635000081000E69727160
:2035C0002D636F6C6C656374696F6E0047F8046DDFF8E86670471835000044F6C870C2F293
:2035E0000000006887460E3600008100076972712D72746347F8046DDFF8C4667047183553
:20360000000044F6C470C2F2000000688746383600008100096972712D657874693047F8B9
:20362000046DDFF8A06670471835000044F6C070C2F200000068874662360000810009695A
:2036400072712D657874693147F8046DDFF8786670471835000044F6BC70C2F20000006884
:2036600087468C3600008100096972712D657874693247F8046DDFF8546670471835000087
:2036800044F6B870C2F2000000688746B63600008100096972712D657874693347F8046D53
:2036A000DFF82C6670471835000044F6B470C2F2000000688746E03600008100096972716A
:2036C0002D657874693447F8046DDFF8086670471835000044F6B070C2F200000068874693
:2036E000083700008100076972712D61646347F8046DDFF8E46570471835000044F6AC7038
:20370000C2F2000000688746323700008100096972712D657874693547F8046DDFF8BC65BD
:2037200070471835000044F6A870C2F20000006887465E37000081000B6972712D74696D66
:203740003162726B47F8046DDFF8946570471835000044F6A470C2F20000006887468A377D
:20376000000081000A6972712D74696D3175700047F8046DDFF86C6570471835000044F64F
:20378000A070C2F2000000688746B637000081000B6972712D74696D3174726747F8046DC6
:2037A000DFF8446570471835000044F69C70C2F2000000688746E237000081000A69727166
:2037C0002D74696D3163630047F8046DDFF81C6570471835000044F69870C2F20000006811
:2037E00087460C3800008100086972712D74696D320047F8046DDFF8F86470471835000053
:2038000044F69470C2F2000000688746363800008100086972712D74696D330047F8046DE4
:20382000DFF8D06470471835000044F69070C2F200000068874660380000810008697271E9
:203840002D74696D340047F8046DDFF8AC6470471835000044F68C70C2F200000068874603
:203860008C38000081000A6972712D6932633165760047F8046DDFF8846470471835000003
:2038800044F68870C2F2000000688746B838000081000A6972712D6932633165720047F8D4
:2038A000046DDFF85C6470471835000044F68470C2F2000000688746E438000081000A69D5
:2038C00072712D6932633265760047F8046DDFF8346470471835000044F68070C2F20000CC
:2038E000006887461039000081000A6972712D6932633265720047F8046DDFF80C64704791
:203900001835000044F67C70C2F2000000688746383900008100086972712D73706931005B
:2039200047F8046DF94E70471835000044F67870C2F20000006887466039000081000869F6
:2039400072712D737069320047F8046DF04E70471835000044F67470C2F2000000688746E0
:203960008A39000081000A6972712D7573617274310047F8046DE74E70471835000044F6FD
:203980007070C2F2000000688746B439000081000A6972712D7573617274320047F8046D5C
:2039A000DD4E70471835000044F66C70C2F2000000688746DE39000081000A6972712D7549
:2039C00073617274330047F8046DD44E70471835000044F66870C2F2000000688746083AE7
:2039E000000081000A6972712D6578746931300047F8046DCA4E70471835000044F66470CE
:203A0000C2F2000000688746343A000081000C6972712D727463616C61726D0047F8046D43
:203A2000C04E70471835000044F66070C2F20000006887465E3A000081000B6972712D756F
:203A40007362776B757047F8046DB74E70471835000044F65C70C2F2000000688746863A62
:203A600000008100086972712D74696D350047F8046DAE4E70471835000044F65870C2F25F
:203A8000000000688746AE3A00008100086972712D737069330047F8046DA54E70471835E1
:203AA000000044F65470C2F2000000688746D63A00008100096972712D756172743447F8DD
:203AC000046D9C4E70471835000044F65070C2F2000000688746FE3A000081000969727196
:203AE0002D756172743547F8046D934E70471835000044F64C70C2F2000000688746263BD3
:203B000000008100086972712D74696D360047F8046D8A4E70471835000044F64870C2F2F1
:203B20000000006887464E3B00008100086972712D74696D370047F8046D814E70471835C1
:203B4000000044F64470C2F2000000688746763B00008100096972712D757362667347F878
:203B6000046D784E70471835000044F64070C2F200000068874600400000FFFF182D2D2D5A
:203B800020466C6173682044696374696F6E617279202D2D2D00FDF728FC6B4885466B4FEA
:203BA0002A264FF000506849016069486949016047F8046D674E684DB1884FF6FF7399426B
:203BC00025D04FF480730B400AD0B01DFEF765FDFEF7B7F80388408800040343ED1A16E033
:203BE00080230B4013D00F23194089006D1AB01DFEF753FDFEF7A5F847F8046D060047F8C0
:203C0000046D2E0047F8046D0E00FCF7D9FFFEF721FD300040CFCFD05048066040CF5048E6
:203C200005604FF480304FF480414FF6FF72884204D0023803889342F9D002304949086045
:203C4000FDF73BFD374D6563726973702D5374656C6C6172697320322E332E3620666F72D0
:203C60002053544D333246313033206279204D61747468696173204B6F63680A3A48002149
:203C8000016047F8046D394E47F8046D0426FEF713FD40CF002E03D0FEF7DAF8FFF7E2BB43
:203CA00040CFFFF7CEBB696E697400000CED00E00400FA05D04F0020CC4F0020C84F002035
:203CC000C44F0020C04F0020BC4F0020B84F0020B44F0020B04F0020AC4F0020A84F0020BC
:203CE000A44F0020A04F00209C4F0020984F0020944F0020904F00208C4F0020884F00209C
:203D0000844F0020804F00207C4F0020784F0020744F0020704F00206C4F0020684F00207B
:203D2000644F0020604F00205C4F0020584F0020544F0020504F00204C4F0020484F00205B
:203D4000444F0020404F002030030020300200200400002050010000005000201C0000203B
:203D6000240000201800002008000020A63C0000FFFFFFFFFFFFFFFFFFFFFFFFFFFFFFFFCD
:203D8000FFFFFFFFFFFFFFFFFFFFFFFFFFFFFFFFFFFFFFFFFFFFFFFFFFFFFFFFFFFFFFFF43
:203DA000FFFFFFFFFFFFFFFFFFFFFFFFFFFFFFFFFFFFFFFFFFFFFFFFFFFFFFFFFFFFFFFF23
:203DC000FFFFFFFFFFFFFFFFFFFFFFFFFFFFFFFFFFFFFFFFFFFFFFFFFFFFFFFFFFFFFFFF03
:203DE000FFFFFFFFFFFFFFFFFFFFFFFFFFFFFFFFFFFFFFFFFFFFFFFFFFFFFFFFFFFFFFFFE3
:204500000003002004F0F2B9FFFFFFFFFFFFFFFFFFFFFFFFFFFFFFFFFFFFFFFFFFFFFFFFF1
:20452000FFFFFFFFFFFFFFFFFFFFFFFFFFFFFFFFFFFFFFFFFFFFFFFFFFFFFFFFFFFFFFFF9B
:20454000944200001C85000000000000000000007803002000030020F891000030920000DB
:204560002C6A0000CC690000205100006C6C00001000000000000000000000000000000017
:2045800000000000804E002000000000F86B0000C05F0000000000000000000000000000AB
:2045A0000000000000000000000000000000000000000000000000000000000000000000FB
:2045C0000000000000000000001000200010002014A3000014A3000000000000000000000D
:2045E000FFFFFFFFFFFFFFFFFFFFFFFFFFFFFFFFFFFFFFFFFFFFFFFFFFFFFFFFFFFFFFFFDB
:2046000000000000044249544000000001CF3668064018BF6FF00006704780B00446000056
:20462000044249432100000003CF3268824332600E4670472046000004584F522100000035
:2046400003CF3268424032600E46704738460000034F522103CF3268024332600E4670473E
:2046600050460000044249532100000000B5FFF7F1FF00BD6446000004414E4421000000A7
:2046800003CF3268024032600E4670477846000002303D00002E02D16FF000067047B61BB4
:2046A000704780B090460000024F4E006FF00000306040CF704780B0A8460000034F4646ED
:2046C0000021316040CF7047BC46000001490000043F3E600098019E36187047CC460000E7
:2046E000014A0000043F3E600398029E06447047E0460000024B2700043F3E60049E059898
:2047000036187047F44600000428444F29000000304642CF81F00041401A03B4704780B041
:204720000847000005283F444F290000304642CF884203D081F00041401A03B4704780B034
:204740002447000006284C4F4F50290001BC401C01B400D702B070474447000007282B4C1E
:204760004F4F502901BC801940CF01B400D702B0704780B05C47000045444F4C4954000034
:20478000043F3E607446204620F0010006680434A7467047784700000C53455455502E43F0
:2047A0004C4F434B53000000074908480860086800F40030FBD00649012008600549086880
:2047C00020F001000860704700380240000001000838024000380240984700000A5345545D
:2047E00055502E55415254000A490B4808600B49086840F420100860094940F27070086040
:20480000084910200860084946200860074908480860704730380240FF07100000000240CF
:204820002400024044380240081001400C1001400C200000DC4700000321494F00B500BD21
:2048400038480000035458210E4A002010608520B0F10100FCD108235FEA360601D3012067
:2048600000E0002010608520B0F10100FCD1B3F10103F1D10120106040CF8520B0F1010063
:20488000FCD17047FC48004080B080B080B080B080B080B080B080B044480000033F525818
:2048A000043F3E60B61B024A1068002802D070474049004010680028FCD14220B0F1010097
:2048C000FCD1082376008520B0F10100FCD11068002800D10136B3F10103F3D16720B0F11A
:2048E0000100FCD13146B61B082076005FEA310100D20136B0F10100F7D1043F3E606FF0D6
:20490000000670479C480000065458213F3F3F00034A0020106001201060FAE7704700BFA1
:20492000684800400849000009544553542E54582127000000B5043F3E605626FFF784FF40
:204940001148B0F10100FCD1043F3E603026FFF77BFF0E48B0F10100FCD10D4A106801282B
:2049600005D1043F3E603126FFF76EFF04E0043F3E603826FFF768FFFFF792FF002E40CF82
:20498000FAD0FFF761FF00BD00000200000002006C4800402849000008544553542E5458AF
:2049A0002100000000B5FFF7C5FF8520B0F10100FCD1FFF7BFFF8520B0F10100FCD1043F48
:2049C0003E60074E3678FFF73FFF8520B0F10100FCD1043F3E60034E3678FFF735FF00BD27
:2049E00001210020052100209849000008544553542E545821000000043F3E605526FFF7B9
:204A000023FFF9E7EC490000444E45582E00000004BC013A04B4002A02D50DF2040D002A14
:204A2000704780B0084A0000464252414E434800744624F0010424680134A746704780B0E1
:204A4000284A0000073F4252414E4348344640CF002C02D00EF2040E7047744624F00104CD
:204A600024680134A7467047444A00000745584543555445741C40CF204770476C4A0000B6
:204A800001210000304642CF01607047804A00000140000036687047904A000002432100B5
:204AA000304642CF017070479C4A00000243400036787047AC4A0000423E520040B440CFAC
:204AC000704780B0B84A000002524000043F3E60009E7047C84A000002523E00043F3E609E
:204AE00040BC7047D84A000003525040043F3E606E467047E84A000043525021B54640CF6E
:204B0000704780B0F84A0000035350403C46043F3E602646704780B0084B000003535021B6
:204B2000374640CF704780B01C4B0000043F445550000000002E01D0043F3E60704780B0A8
:204B40002C4B000003445550043F3E60704780B0444B00000444524F5000000040CF70479C
:204B6000544B0000045357415000000034463E683C607047644B0000044F564552000000F5
:204B80003C68043F3E602646704780B0784B000002303C00364202D56FF0000600E0B61BA7
:204BA000704780B0904B000003414E4401CF0640704780B0A84B0000024F520001CF0643B1
:204BC000704780B0B84B000003584F5201CF4640704780B0C84B000003554D2B01CF3618B1
:204BE00003D3043F3E6001267047043F3E60B61B704780B0D84B000003524F54304642CFE5
:204C0000083F386079607047F84B0000053244524F500000043740CF704780B00C4C0000ED
:204C200004324455500000003868083F38607E60704780B0204C0000012B000001CF36185B
:204C4000704780B0384C0000012D000001CF801B06467047484C0000034E4F54013E66EB35
:204C600006067047584C0000064E45474154450076427047684C000003414253364200D5CA
:204C800076427047784C000004464C4950000000704780B0884C000007444E4547415445F8
:204CA00038683146B61B40428E413860704780B0984C000008444E45474154452A0000002E
:204CC0003868404238603146B61B8E41704780B0B44C0000013D000001CF4640002E01D089
:204CE000B61B01E06FF00006704780B0D44C000002553C0001CFB04202D26FF0000600E028
:204D0000B61B7047F04C00000543454C4C2B000004367047084D00000543454C4C2D0000E7
:204D2000043E7047184D00000543454C4C530000B6007047284D00000543454C4C2F000067
:204D4000B6107047384D000002312B0001367047484D000002312D00013E7047544D000079
:204D600002322F0076107047604D000007414C49474E4544033626F0030670476C4D000023
:204D800006554D2F4D4F440003CF00222123B04201D360EB060052415B1E05D0491840414A
:204DA000F5D3801B0043F6E7043F386016467047804D000045444F564152000000B5043FFC
:204DC0003E6040BC013E00BDB44D00000255500000B5FFF7F3FF0021002080B0CC4D00006E
:204DE00046444F555345520020BC043F3E6055F8016BAF4670470000E04D00000353503076
:204E000000B5FFF7BDFC1021002000BDFC4D00000352503000B5FFF7B3FC1421002000BD96
:204E2000104E000005273F4B4559000000B5FFF7A7FC1821002000BD244E00000527454D2C
:204E40004954000000B5FFF79BFC1C21002000BD3C4E0000072745585045435400B5FFF72D
:204E60008FFC2021002000BD544E0000042754415000000000B5FFF783FC2421002000BD8B
:204E80006C4E000005274543484F000000B5FFF777FC2821002000BD844E00000727505227
:204EA0004F4D505400B5FFF76BFC2C21002000BD9C4E0000044241534500000000B5FFF7C2
:204EC0005FFC3021002000BDB44E000043544D5000B5FFF755FC3421002000BDCC4E0000CB
:204EE000045350414E00000000B5FFF749FC3821002000BDE04E0000033E494E00B5FFF7A5
:204F00003FFC3C21002000BDF84E0000042354494200000000B5FFF733FC4021002000BDB8
:204F20000C4F0000042754494200000000B5FFF727FC4421002000BD244F000003435350A0
:204F400000B5FFF71DFC4821002000BD3C4F000005274556414C000000B5FFF711FC4C2143
:204F6000002000BD504F000007274E554D42455200B5FFF705FC5021002000BD684F00000D
:204F800003484C4400B5FFF7FBFB5421002000BD804F00000748414E444C455200B5FFF7C4
:204FA000EFFB5821002000BD944F000007434F4E5445585400B5FFF7E3FB5C21002000BDBF
:204FC000AC4F00000743555252454E5400B5FFF7D7FB8021002000BDC44F00000243500009
:204FE00000B5FFF7CDFB8821002000BDDC4F0000024E500000B5FFF7C3FB8C21002000BDFA
:20500000F04F0000044C41535400000000B5FFF7B7FB9021002000BD0450000005464F52EE
:20502000542E000000B5FFF7ABFB9421002000BD1C50000005464F525448000000B5FFF76C
:20504000F1FFFFF7B7FFFFF71DFD00BD34500000044845524500000000B5FFF7C1FFFFF7DA
:2050600019FD00BD50500000012C000000B5FFF7F3FFFFF769FDFFF74BFEFFF7B1FFFFF7BC
:2050800001FDFFF7FFFC00BD685000000649414C4C4F540000B5FFF7A3FF00F05FFD00BD8B
:2050A0008C5000000331362C00B5FFF7DFFFFFF767FBFEFFFFFFFFF7EDFF00BDA45000000F
:2050C00008404558454355544500000000B5FFF7E1FCFFF72FFDFFF7B9FCE2500000FFF7F8
:2050E000C9FC00BDC0500000043F4B455900000000B5FFF79BFEFFF7E9FF00BDE8500000DB
:20510000034B455900B5FFF7F3FF002E40CFFAD000BD00000051000004454D4954000000BE
:2051200000B5FFF78FFEFFF7D1FF00BD1851000018554152542E5357495443482E53544DD5
:205140003332463432392E454600000000B5043F3E60064EFFF776FEFFF794FC043F3E6091
:20516000034EFFF763FEFFF78DFC00BD70A3000080A400003051000016554152542E494E7C
:2051800049542E53544D3332463432392E45460000B51148016B41F005010163416C41F05A
:2051A000100141640D48016821F4701141F420110160416A21F47F6141F4EE614162084807
:2051C000084981818B21018107480849016008494161FFF7BBFF00BD003802400000024031
:2051E000001001400C20000000080240000004020012000078510000095B505553482E4CE9
:20520000525D000000B5FFF7BBFA00B50000FFF74BFF00BDF8510000064C534849465400B4
:20522000304640CF86407047185200001F233E285A45524F455854454E4428494D4D343AD9
:20524000493A494D4D333A494D4D382900B540B440CF043F3E60009EFFF792FAFF0000007F
:2052600001CF0640043F3E60009EFFF789FA0007000001CF0640FFF783FA04000000FFF796
:20528000CFFF01CF3618043F3E60009EFFF778FA0008000001CF0640FFF772FA0F000000AC
:2052A000FFF7BEFF01CF3618043F3E6040BCFFF767FA00F0000001CF0640FFF761FA04008E
:2052C0000000FFF7ADFF01CF361800BD2C52000005483C2D3E4C000000B5FFF751FA00009D
:2052E0000000FFF74DFA00000100FFF74DFD34463E683C60FFF744FA0000010000F0A2FBB2
:2053000001CF361800BD80B0D0520000065B52343D235D0000B5FFF799FFFFF731FA000454
:2053200040F201CF3618FFF7D7FFFFF79FFE00BD0C530000065B52303D235D0000B5FFF757
:2053400085FFFFF71DFA000040F201CF3618FFF7C3FFFFF78BFE00BD34530000075B523409
:20536000543D235D00B5FFF771FFFFF709FA0004C0F201CF3618FFF7AFFFFFF777FE00BD68
:205380005C530000075B5230543D235D00B5FFF75DFFFFF7F5F90000C0F201CF3618FFF7B8
:2053A0009BFFFFF763FE00BD845300000F43414C4C5F3332232E54415247455400B5FFF7B6
:2053C000DFF900000000FFF7DBF900000100FFF7DBFC34463E683C6046F00106FFF7AEFFC1
:2053E000002E01D140CF01E0FFF7D0FFFFF7C8F980470000FFF758FE00BD80B0AC53000042
:205400001343414C4C5F3332232E5441524745542852342900B5FFF7B3F900000000FFF75D
:20542000AFF900000100FFF7AFFC34463E683C6046F00106FFF76EFF002E01D140CF01E0D6
:20544000FFF790FFFFF79CF9A0470000FFF72CFE00BD80B00054000016323452454C2E4324
:205460004845434B2E434D342E5441524745540000B5FFF7B5FDFFF70DFBFFF749FCFFF79E
:20548000E5FBFFF76FFC00BD58540000193234233E352E2E313023322E4A2E4A3131232E98
:2054A000544152474554000000B540B440CF043F3E60009EFFF764F90000800001CF064005
:2054C000FFF75EF903000000FFF7AAFE043F3E60009EFFF755F90000800001CF0640002E57
:2054E00040CF24D0043F3E60009EFFF749F90000400001CF0640002E40CF05D0FFF740F95B
:205500000020000001CF3618043F3E60009EFFF737F90000200001CF0640002E40CF05D060
:20552000FFF72EF90008000001CF361825E0043F3E60009EFFF724F90000400001CF06403B
:20554000002E40CF00D005E0FFF71AF90020000001CF3618043F3E60009EFFF711F9000093
:20556000200001CF0640002E40CF00D005E0FFF707F90008000001CF3618043F3E60009E68
:20558000FFF7FEF800F81F0001CF0640FFF7F8F805000000FFF744FE01CF3618043F3E60D0
:2055A00040BCFFF7EDF8FF07000001CF064001CF361800BD8C54000013307E31353C2D3E6F
:2055C00031367E33312E54415247455430460004360C0643704780B0B855000010524341AE
:2055E0004C4C5F3234232E54415247455400000000B5FFF73DFFFFF757FF46F00106FFF7D0
:20560000BFF800D000F001CF3618FFF7DFFFFFF72DFD00BDDC5500000443414C4C000000F3
:2056200000B5043F3E60FFF7DBFC3668FFF70EFBFFF724FBFFF7A4F8FFFFFF0000F044F999
:20564000002E40CF02D0FFF7D3FF01E0FFF7B6FE00BD80B0185600000443414C4C0000006D
:2056600000B5043F3E60FFF7BBFC3668FFF7EEFAFFF704FBFFF784F8FFFFFF0000F024F9FA
:20568000002E40CF02D0FFF7B3FF01E0FFF7C2FE00BD000058560000874C49544552414CBD
:2056A00000B5FFF76DF880470000FFF7D9FFFFF7DDFC00BD9856000003242E2200B5FFF7A9
:2056C0005FF82200000000F045FF00F073FAFFF7B5FAFFF74FFBFFF783FCFFF7D3F900BDE7
:2056E000B8560000875245435552534500B5FFF78DFCFFF7CFF900F03BFFFFF7B7FC00BD7A
:20570000E456000083464F5200B5FFF739F8BC4A0000FFF7A5FFFFF79FFC00BD04570000C0
:2057200085424547494E000000B5FFF795FC00BD20570000844E45585400000000B5FFF7A1
:205740001FF8104A0000FFF78BFFFFF78FFC00BD34570000044E45583A000000009D013D8B
:20576000002D04D5042085440EF2040E7047CDF80050BEF1010EDEF800E04EF0010E7047E0
:2057800054570000844E45585400000000B5FEF7F7FF5C570000FFF763FFFFF767FC00BDDA
:2057A0008457000085554E54494C000000B5FEF7E7FF4C4A0000FFF753FFFFF757FC00BD89
:2057C000A457000085414741494E000000B5FEF7D7FF304A0000FFF743FFFFF747FC00BDC1
:2057E000C45700008249460000B5FEF7C9FF4C4A0000FFF735FFFFF72FFC043F3E60002623
:20580000FFF734FC00BD0000E4570000854148454144000000B5FEF7B3FF304A0000FFF7C6
:205820001FFFFFF719FC043F3E600026FFF71EFC00BD00000C5800008652455045415400C0
:2058400000B5FFF7C3FFFFF707FCFFF78FF9FFF719F900BD38580000845448454E0000005C
:2058600000B5FFF7F9FBFFF781F9FFF70BF900BD585800008341465400B5FFF76FF9FFF74B
:20588000C9FFFFF751FFFFF771F900BD7458000084454C534500000000B5FFF7BBFFFFF709
:2058A00065F9FFF7DDFF00BD90580000855748494C45000000B5FFF797FFFFF757F900BDD1
:2058C000AC580000013C000000B5FFF7ADF9FFF77DF9FFF75FF9FFF7B9F8E8580000FFF79F
:2058E0003DF9FFF757F900BDFFF7B0F9FFF752F900BD0000C4580000034D415800B5FFF722
:2059000093F9FFF7E1FFFFF7A1F812590000FFF72DF9FFF723F900BDF8580000034D494E09
:2059200000B5FFF781F9FFF721F9FFF7CDFFFFF78DF83A590000FFF719F9FFF70FF900BD9F
:205940001C5900000657495448494E0000B5FFF717F9FFF77BF9FFF7B1F8FFF777F9FFF7D9
:20596000BDF8FFF7C7F900BD44590000054D2F4D4F44000000B5FFF7E7F8FFF70BF9FFF787
:20598000E3F8FFF79BF8FFF761F89E590000FFF76FF9FFF793F8FFF783F9FFF79FF8FFF789
:2059A0008DF8FFF7D1F8FFF7F5F8FFF74FF8BA590000FFF78BF8FFF741F9FFF78FF8FFF754
:2059C000E3F9FFF78BF8FFF741F8DA590000FFF7CDF8FFF74DF9FFF7C9F800BD6C590000E0
:2059E000042F4D4F4400000000B5FFF7C9F8FFF7D1F8FFF7BBF8FFF7BDFF00BDE059000018
:205A0000034D4F4400B5FFF7EFFFFFF7A7F800BD005A0000012F000000B5FFF7E5FFFFF7A9
:205A2000A5F8FFF79BF800BD145A000003554D2A3868A0FB06063860704700002C5A00002A
:205A4000012A000000B5FFF7F3FFFFF787F800BD405A0000024D2A0000B5FFF7E5F8FFF7BB
:205A6000B5F8FFF797F8FFF729F8FFF707F9FFF77DF8FFF703F9FFF7DBFFFFF72FF8FEF7A8
:205A8000E5FF8A5A0000FFF70BF900BD545A0000052A2F4D4F44000000B5FFF70FF8FFF7F3
:205AA000DBFFFFF71BF8FFF765FF00BD905A0000022A2F0000B5FFF7EFFFFFF757F8FFF7D3
:205AC0004DF800BDB05A000002424C0000B5FEF757FE2000000000BDC85A0000053E43485E
:205AE0004152000000B5FEF74BFE7F000000FFF75DF8FFF729F8FEF743FE7F000000FFF794
:205B0000E5FFFFF723FFFEF7A1FF1A5B0000FFF725F8FEF735FE5F00000000BDDC5A0000F2
:205B2000054445505448000000B5FFF769F9FEF7B1FFFEF7EBFFFFF789F8FFF701F900BD36
:205B4000205B0000045049434B000000B600BE59704780B0445B0000022B2100304642CF77
:205B60000268891801607047585B00000232210000B5FEF7FBFFFFF703F8FEF783FFFFF7F8
:205B8000C7F8FEF77FFF00BD6C5B00000232400000B5FEF7D9FFFFF7BBF8FEF77BFFFEF74C
:205BA000E5FFFEF777FF00BD8C5B000005434F554E54000000B5FEF7C7FFFFF7C7F8FEF74A
:205BC000D5FFFEF775FF00BDAC5B00000350414400B5FFF741FAFEF7D3FD00010000FFF74A
:205BE0002DF800BDCC5B00000354494200B5FFF791F9FFF78DF8FEF74DFF00BDE85B0000C9
:205C000005434D4F5645000000B5FEF757FFFEF70FFF365C0000FEF751FFFEF795FFFEF7AD
:205C200047FFFEF753FFFEF73BFFFFF78FF8FEF755FFFFF78BF803488047ECD5FEF7EAFFB8
:205C400000BD00BF114A0000005C00000446494C4C00000000B5FEF789FFFEF72FFFFEF79C
:205C600085FFFEF7E5FE765C0000FEF7DDFFFEF717FFFFF76BF803488047F6D5FEF7CAFF26
:205C800000BD00BF114A00004C5C0000092D545241494C494E47000000B5FEF70FFFFEF748
:205CA000C7FED05C0000FFF711FFFEF769FFFEF70DFFFEF7C3FFFEF7FBFEFFF705FEFEF7FC
:205CC000C5FED05C0000FEF709FFFFF73FF800BD03488047E7D5FEF753FD0000000000BD1E
:205CE000114A00008C5C0000075041434B242B3800B5FEF729FFFEF7E1FEFEF741FFFEF7E4
:205D000023FF043F3E600126FEF750FFFEF79EFFFEF736FFFEF792FF043F3E600026FEF7D7
:205D200025FFFEF7AFFEFEF77FFFFEF7B9FEFFF70DF8FEF71BFFFFF767FFFEF7CFFE00BD99
:205D4000E85C0000055041434B24000000B5FFF711F8FFF7CDFF00BD445D0000054449470A
:205D60004954000000B5FEF70BFD09000000FEF707FFFFF7A9FDFEF703FD07000000FEF743
:205D800015FFFEF75BFFFEF7FBFC30000000FEF755FF00BD5C5D00000745585452414354A3
:205DA00000B5043F3E600026FEF7E0FEFEF7ECFFFEF7DCFEFFF7D6FF00BD0000985D000028
:205DC000023C230000B5FFF703FFFFF7DBF8FEF759FE00BDC05D000004484F4C440000009B
:205DE00000B5FFF7CFF8FEF755FEFEF7B5FFFEF7ABFEFFF7C7F8FEF745FEFEF751FE00BDB4
:205E0000D85D00000123000000B5FFF757F8FEF741FEFFF7C5FFFFF7E3FF00BD045E00004A
:205E20000223530000B5FFF7EFFFFEF78DFEFEF70DFE3E5E0000FEF7FBFD265E000000BD07
:205E4000205E0000045349474E00000000B5FEF7A1FEFEF7FBFD665E0000FEF791FC2D00E6
:205E60000000FFF7BDFF00BD445E000002233E0000B5FEF773FEFFF785F8FEF70BFEFFF72C
:205E8000A7FEFEF77DFEFEF7E1FE00BD6C5E00000353545200B5FEF757FEFEF70FFEFEF7A0
:205EA000EDFEFFF78FFFFFF7BDFFFEF717FEFFF7CDFFFFF7DDFF00BD905E00000348455890
:205EC00000B5FEF75DFC10000000FEF7F7FFFEF7D9FD00BDBC5E000007444543494D414C2C
:205EE00000B5FEF74DFC0A000000FEF7E7FFFEF7C9FD00BDD85E000003555043612E03D4CB
:205F00007B2E01D506F0DF06704780B0F85E0000043E555043000000612E03D47B2E01D5DB
:205F200006F0DF0670470000105F00000F535741502E5550432E535741502E2D00B5FEF792
:205F400015FEFFF7DBFFFEF711FEFEF77FFE00BD2C5F00000644494749543F0000B5FEF740
:205F6000ADFDFEF70DFC30000000FFF7E7FFFEF707FC09000000FEF703FEFFF7A5FCFEF7EA
:205F800065FDA65F0000FEF7FBFB07000000FEF75DFEFEF7D9FDFEF7F3FB0A000000FFF7AA
:205FA00093FCFEF70BFEFEF7CFFDFEF797FDFEF7A1FE00BD545F0000074E554D4245523FF7
:205FC00000B5FEF77BFFFEF765FDFEF777FD043F3E600026FEF7D4FDFFF7ECFDFEF7D0FD6F
:205FE000FEF766FDFEF7CCFB24000000FEF774FEFEF72CFD0C600000FFF762FFFEF7B6FD79
:20600000FEF7A4FEFEF7B2FDFEF7A6FEFEF7B8FDFEF74EFDFEF7B4FB2D000000FEF75CFEA2
:20602000FEF74CFDFEF7A2FDFEF750FDFEF70EFEFEF79CFDFEF74AFDFEF700FEFEF77AFD22
:20604000FEF704FDD0600000FEF786FEFEF736FDFEF77AFDFEF732FDFEF72AFDFEF72EFFAB
:20606000FEF718FDFFF77AFFFEF7F0FCB6600000FEF77CFDFEF722FFFEF70CFDFFF7E2FC5A
:20608000FEF7DCFDFEF72AFDFEF760FE16488047DED5FEF71BFDFEF769FDFEF75FFDFEF73D
:2060A000D5FCAA600000FEF7E3FDFEF75FFDFEF7BFFCCC600000FEF711FDFEF70FFDFEF70A
:2060C000A9FDFEF7A7FD043F3E600026FEF73CFDFEF704FDFEF79EFDFEF700FDFEF7EEFEF3
:2060E000FEF7D0FC00BD00BF114A0000B85F0000044E55463F00000000B5FEF7F9FFFEF72E
:2061000023FDFEF7A3FC1E610000FEF783FDFEF7F9FFFEF735FB0D000000FEF7DDFD00BD2C
:20612000F0600000045041434500000000B5FEF727FB0B000000FEF7F3FF00BD24610000F2
:20614000055350414345000000B5FFF7BFFCFEF7E7FF00BD4061000006535041434553006A
:2061600000B5043F3E600026FFF7C8FBFEF7A6FCFEF75EFC7C610000FFF7E6FF01488047FC
:20618000FAD500BD114A000058610000045459504500000000B5FEF791FCFEF749FCB26195
:2061A0000000FEF7D1FCFEF783FCFEF7B9FFFEF7CDFD03488047F4D5FEF7D0FC00BD00BF25
:2061C000114A00008C6100000243520000B5FEF7D7FA0A000000FEF7A3FFFEF7D1FA0D00F7
:2061E0000000FEF79DFF00BDC861000043444F2400B5FEF773FCFEF769FCFEF76FFCFFF765
:20620000D9FCFEF71BFDFEF759FCFEF7AFFCFEF755FC00BDEC61000003444F24043F3E60C7
:206220000098461E317809180320091881430131CDF8001070470000186200004324227C53
:2062400000B5FFF7EBFF00BD3C620000432E227C00B5FFF7E3FFFFF7ADFCFFF79BFF00BDC6
:206260004C620000022E520000B5FEF727FCFFF711FEFEF733FCFEF783FCFEF7E7FCFFF7B6
:206280006FFFFFF787FF00BD6462000003552E5200B5FEF713FCFFF795FDFFF7C3FDFFF7CC
:2062A000E7FDFEF71BFCFEF76BFCFEF7CFFCFFF757FFFFF76FFF00BD8C62000002552E00F2
:2062C00000B5FFF77FFDFFF7ADFDFFF7D1FDFFF73BFFFFF75FFF00BDBC620000012E0000A5
:2062E00000B5FEF7EBFDFEF7D5FBFEF749FA0A000000FEF76BFCFEF7A9FB04630000FFF7B3
:20630000DFFF00BDFFF7C6FDFFF71EFFFFF742FF00BD0000DC620000013F000000B5FEF7FA
:20632000B9FBFFF7DDFF00BD1863000005504152532E000000B5FEF7CBFDFEF7A3FBFEF73C
:206340001FFCFEF7BBFBFEF7FFFBFEF77FFB44640000FEF701FDFEF7BBFDFEF79BFBFFF750
:20636000B5FBFEF7B9FCFEF771FBB8630000FEF7A5FBFFF7ABFBFEF703FCFEF799FBFEF7A4
:2063800065FCFEF707FCFEF769FCFEF75FFBB4630000FEF7DBFC06488047EAD5FEF79EFBB6
:2063A000FEF7DCFB043F3E600026FEF7CDFB00BD114A0000FEF792FBFEF7E2FBFEF7D6FB1B
:2063C000FEF77CFBFEF784FDFEF764FBFEF7D8FBFEF76EFBFEF73AFCFEF77AFDFEF75AFB80
:2063E000FFF774FBFEF778FCFEF730FBF4630000FEF7D0FBFEF72AFB16640000FEF7A6FC6D
:206400000F488047DED5FEF79FFBFEF757FBFEF70FFB2A640000FEF761FBFEF79FFBFEF773
:2064200093FBFEF793FCFEF749FBFEF7A9FBFEF70DFCFEF753FBFEF751FBFEF707FC00BD41
:20644000114A0000FEF79CFBFEF748FBFEF7FEFB00BD00002C630000055041525345000063
:2064600000B5FEF72BFBFFF7C1FBFEF747FDFEF711FBFEF7E3FBFEF74DFDFEF70BFBFEF75E
:206480003DFDFEF707FBFEF7E1FBFEF727FBFFF751FFFEF733FDFFF761FB00BD58640000AD
:2064A000822E280000B5FEF76BF929000000FFF7D7FFFFF76FFE00BDA064000001280000B4
:2064C00000B5FEF75DF929000000FFF7C9FFFEF7A1FB00BDBC640000815C000000B5FEF7E0
:2064E00019FDFEF7D7FAFEF709FDFEF7CBFA00BDD8640000044348415200000000B5FFF745
:20650000E5FAFFF7ADFFFEF729FBFEF7D1FA00BDF464000005544F4B454E000000B5FFF7DB
:20652000D5FAFFF79DFFFEF72BF91F000000FFF7F7F9FEF755FDFEF7ADFAFEF71BFCFEF7F8
:20654000E7FBFFF703FC00BD1465000004574F524400000000B5FFF783FFFEF77DFDFFF75C
:20656000C7FB00BD4C650000054E414D453E000000B5FFF71FFBFEF703F91F000000FEF7BD
:2065800015FBFEF75BFBFEF7F5FB00BD686500000B3E5550432832425954452900B5FEF79F
:2065A000EFF803000000FEF789FAFEF7E9F800000000FEF7E5F800010000FEF7E5FB0A48A9
:2065C0008047F2D5FEF7DCF803000000FEF776FAFEF7D6F808000000FEF722FEFEF72EFBFE
:2065E00002488047F4D500BD114A0000114A0000906500000D402E3E55504328324259546F
:206600004529000000B5FEF745FAFFF7C7FF00BDF46500000553414D453F000000B5FEF73D
:206620004DFAFEF705FA6C660000FEF7A9FAFEF74DFAFEF77DFBFEF701FBFFF7E3FFFEF74E
:206640009FFAFEF743FAFEF773FBFEF7F7FAFFF7D9FFFEF7FBFAFEF76DFAFEF7F7F96C665B
:206660000000FEF73BFAFEF779FA00BD03488047DBD5FEF785F80000000000BD114A00007F
:2066800014660000043E555043000000612E03D47B2E01D506F0DF067047000084660000F5
:2066A0001E535741502E3130302E2F4D4F442E3E5550432E3130302E2A2E2B2E414E4400C0
:2066C00000B5FEF753FA043F3E6040F20016FFF78BF9FFF7DBFF043F3E6040F20016FFF731
:2066E000B1F9FEF7ABFAFEF761FA00BDA0660000193130302E2F4D4F442E3E5550432E31A9
:2067000030302E2A2E2B2E584F52000000B5043F3E6040F20016FFF767F9FFF7B7FF043F1E
:206720003E6040F20016FFF78DF9FEF787FAFEF74DFA00BDF06600000446494E440000000D
:2067400000B5FEF713FAFEF7FFF9FEF7B1F9B610FEF7BEFBFEF796F9FEF7F6F9FEF79AF992
:20676000FEF7ACF9FEF7D4FAFEF700FAFEF792F9FEF7EAF9FEF76AF9CA670000FEF7E4F91A
:20678000FEF788F9FDF7FCFF1F7F7F7FFFF798FFFEF79CF9FFF7BAFFFEF758F9B2670000D3
:2067A000FEF7B6FA043F3E600D4EFEF741F9C2670000FEF7ADFAFEF78BFBFEF76BF9FFF73A
:2067C0002DFFFEF735F9E4670000FEF787F9FEF7C5F9FEF7CBF9FEF7A3FAFEF7C7F900BD3A
:2067E000FFFFFFFFFEF732F9FC670000FEF798FAFEF796FAFEF71CF96C670000FEF76EF9D5
:20680000FEF7ACF9FEF7B2F9FEF7A8F9FEF788FAFEF79AF9FFF7ACFEFEF7A8F900BD0000B6
:2068200038670000054E414D453F000000B5FEF7C1FBFEF789F9FFF7ABF9FEF7C7F9FEF733
:2068400005F94A680000FEF76BFAFEF737F9FEF745F9FEF75DFAFEF777F9FEF72FF9FEF713
:2068600019F9FEF767F9FEF7F1F888680000FFF767FFFEF75FF9FEF7E9F84E680000FEF7B9
:206880002DF9FEF76BF900BDFEF728F9FEF766F9FDF776FF0000000000BD80B02468000070
:2068A000084E414D453F27272700000000B5FEF781FB3668002E26D03C68043F3E60264622
:2068C0003678043F3E601F2601CF06403C68043F3E6026463678043F3E601F2601CF0640F3
:2068E000FEF7FAF9002E40CF04D0FFF797FE002E40CF02D0043E3668DCE73E60FFF738FE98
:2069000034463E683C6000BDA0680000022E530000B5FFF75BFCFFF707F9FEF7CFF8FEF7CA
:2069200087F832690000FEF7D1F8FFF70FF9FFF7D7FC02488047F6D500BD00BF114A000005
:206940000C690000025E480000B5FEF7B7F8FEF717F9FEF7C3F8FEF709F9FEF711F9FEF721
:2069600035F9FEF773F89A690000FDF709FF08000000FEF78BFAFEF7A9FBFEF7EDF9FFF79E
:20698000A5F8FEF783FAFEF7A1FBFDF7F9FE08000000FEF77BFAFEF799FB00BD4469000007
:2069A0000354415000B5FEF7CFF8FEF76FFAFEF78DFBFEF7E5F8FEF773F8FEF7C7F900BDFF
:2069C000A0690000044B54415000000000B5FEF7BBF8FDF7D5FE0D000000FEF7F7F8FEF770
:2069E00035F80A6A0000FDF7CBFE08000000FEF7EDF8FEF72BF8046A0000FFF767F8FFF786
:206A0000D1FF00BDFFF7A0FF00BDFEF7A7F8FEF7ADF8FEF7A3F8FEF797F8FFF795FB00BD12
:206A2000C4690000064143434550540000B5FEF7A7F8FEF703F9FEF7A3F8FEF7F5F8FEF7D2
:206A4000C5F8FEF703F8866A0000FEF75BFBFEF77BF8FFF73BF8FDF793FE7F000000FEF7C4
:206A600075FFFDF7F3FF766A0000FFF79BFFFDF7DFFF7E6A0000FEF7FDF9FEF727FBFDF79C
:206A8000D7FF3A6A0000FEF769F8FEF779F8FEF7DDF800BD246A00000645585045435400DC
:206AA00000B5FEF7DBF9FEF711FBFEF71DFAFDF7E9FFFEF753F800BD986A00000551554580
:206AC0005259000000B5FFF791F8FDF759FE50000000FEF7C3F9FEF7F9FAFEF71BFAFDF7A5
:206AE000D1FFFEF73BF8043F3E600026FEF706FAFDF7C8FF00BD0000BC6A00000543415427
:206B00004348000000B5FEF701F8FDF7D7FFFEF745FAFDF7BFFFFDF7D1FFFDF7E7FFFEF704
:206B20003DFAFDF7AFFFFDF7A5FFFDF7D7FFFEF735FAFDF7A7FFFDF7D1FFFEF70FF8043F59
:206B40003E60002600BD0000FC6A0000055448524F57000000B5FEF721FAFDF79BFFFDF76E
:206B6000CDFFFDF7BBFFFEF719FAFDF78BFFFDF7B5FFFDF7FBFFFDF7A1FFFDF7D1FFFDF733
:206B8000EDFFFDF7ABFF00BD4C6B0000054E554C4C24000000B5FEF711F9000000000000DF
:206BA0008C6B00000541424F5254000000B5FFF7F1FFFFF7CFFF0000A46B00004641424FDB
:206BC000522E220000B5FDF741FFDE6B0000FFF725FBFEF7EFFFFFF7DDFAFFF7E7FFFFF749
:206BE0001DFBFDF7BBFF00BDBC6B00000A24494E544552505245540000B5FFF717FEFDF74C
:206C000099FFFDF723FF326C0000FDF743FFFDF7B7FD40000000FDF7C9FFFFF7D3FF0D2059
:206C2000636F6D70696C65206F6E6C79FDF722FF00BDFEF79DF9FEF749FAFDF707FF446C4A
:206C4000000000BDFFF786FFEC6B0000815B000000B5FDF795FDF86B0000FEF77DF9FDF7CC
:206C600011FF00BD4C6C0000032E4F4B00B5FDF787FDF86B0000FEF76FF9FDF70BFFFEF7E4
:206C80002BF8FDF7E3FE946C0000FFF7E1FA04204F4B2000FFF79AFA00BD0000686C000032
:206CA000063F535441434B0000B5FEF73DFFFDF771FFFFF787FF0C20756E646572666C6FC8
:206CC000773F3F0000BD0000A06C0000044556414C00000000B5FFF721FCFDF735FFFDF7E6
:206CE000E7FEFDF7B3FEFE6C0000FEF735F9FEF7EDF9FFF7D9FFFDF79BFED66C0000FDF711
:206D00002DFFFEF7CFF8FEF7E1F900BDCC6C0000065052455345540000B5FEF771F8FDF7E7
:206D2000B9FEFDF7FDFE043F3E60044EFEF7F2F8FDF7EEFFFDF7A6FE00BD00BF804E0020B8
:206D4000106D00004358494F00B5FDF719FD2C6A0000FEF783F8FEF70BFFFEF797F8FEF746
:206D600007FF00BD446D00000446494C4500000000B5FDF705FD2C610000FDF701FD5C4BAA
:206D80000000FDF7FDFCCC690000FFF7DDFF00BD686D00000448414E4400000000B5FDF7A5
:206DA000EFFC6C6C0000FDF7EBFC20510000FDF7E7FCCC690000FFF7C7FF00BD946D00003E
:206DC00003492F4F00B5FDF7F9FF80A4000070A300000000C06D000007434F4E534F4C45CA
:206DE00000B5FFF7EFFFFEF7D3FEFEF71FF8FEF7BFFEFFF7D3FF00BDD86D000004515549B9
:206E00005400000000B5FEF705F8FDF743FEFDF775FEFFF71DFFFFF755FEFDF7B1FCD46C9F
:206E20000000FFF76FFEFDF785FEFDF70FFE166E0000FEF737F8FDF72DFEFDF73FFEFFF789
:206E4000CFFFFFF7A7FEFDF79BFEFDF7BFFEFDF7FDFD706E0000FFF777F9FEF7ABFEFFF7C5
:206E600099F9FFF7F5F904203F3F3F00FFF7AEF9FDF734FEFDF784FC6C6C0000FDF7A6FE14
:206E8000FDF7E4FD946E0000FDF77AFC1B000000FEF746F9FFF740FFFDF7CAFD126E0000F2
:206EA000FC6D00000127000000B5FFF737FBFFF7BDFCFDF7CBFDBC6E000000BDFFF74AFED4
:206EC000A46E000005414C4C4F54000000B5FEF787F8FEF743FE00BDC46E0000012C0000A4
:206EE00000B5FEF7B9F8FDF72FFEFDF711FFFEF777F8FDF7C7FDFDF7C5FD00BDDC6E000039
:206F000002432C0000B5FEF7A7F8FDF71DFEFDF71DFFFEF765F8FDF7B5FDFDF7C1FD00BD31
:206F2000006F0000895B434F4D50494C455D000000B5FFF7B9FFFFF7D3FF00BD246F00001D
:206F400047434F4D50494C4500B5FDF7C7FD26F00106FDF7F9FDFDF79DFDFEF781FBFDF77A
:206F6000D7FE46F00106FDF7A9FD00BD406F0000065B583D303F5D0000B5FDF7F7FDFEF7A5
:206F80006BF80436FDF762FE7610FFF7BBFFFFF7B9FF00BD706F0000865B5A3D313F5D003B
:206FA00000B5043F3E60D026FFF7E6FF00BD80B0986F0000865B5A3D303F5D0000B5043F3A
:206FC0003E60D126FFF7D8FF00BD80B0B46F0000865B433D313F5D0000B5043F3E60D22683
:206FE000FFF7CAFF00BD80B0D06F0000865B433D303F5D0000B5043F3E60D326FFF7BCFF39
:2070000000BD80B0EC6F0000865B4E3D313F5D0000B5043F3E60D426FFF7AEFF00BD80B0CF
